{
  "_format": "hh-sol-artifact-1",
  "contractName": "Puzzle",
  "sourceName": "contracts/Puzzle.sol",
  "abi": [
    {
      "inputs": [
        {
          "internalType": "string",
          "name": "_uri",
          "type": "string"
        },
        {
          "internalType": "uint256",
          "name": "_refundingGasPrice",
          "type": "uint256"
        }
      ],
      "stateMutability": "nonpayable",
      "type": "constructor"
    },
    {
      "anonymous": false,
      "inputs": [
        {
          "indexed": true,
          "internalType": "address",
          "name": "owner",
          "type": "address"
        },
        {
          "indexed": true,
          "internalType": "address",
          "name": "approved",
          "type": "address"
        },
        {
          "indexed": true,
          "internalType": "uint256",
          "name": "tokenId",
          "type": "uint256"
        }
      ],
      "name": "Approval",
      "type": "event"
    },
    {
      "anonymous": false,
      "inputs": [
        {
          "indexed": true,
          "internalType": "address",
          "name": "owner",
          "type": "address"
        },
        {
          "indexed": true,
          "internalType": "address",
          "name": "operator",
          "type": "address"
        },
        {
          "indexed": false,
          "internalType": "bool",
          "name": "approved",
          "type": "bool"
        }
      ],
      "name": "ApprovalForAll",
      "type": "event"
    },
    {
      "anonymous": false,
      "inputs": [
        {
          "indexed": false,
          "internalType": "uint256",
          "name": "oldRefundPrice",
          "type": "uint256"
        },
        {
          "indexed": false,
          "internalType": "uint256",
          "name": "newRefundPrice",
          "type": "uint256"
        }
      ],
      "name": "GasRefundSet",
      "type": "event"
    },
    {
      "anonymous": false,
      "inputs": [
        {
          "indexed": true,
          "internalType": "address",
          "name": "previousOwner",
          "type": "address"
        },
        {
          "indexed": true,
          "internalType": "address",
          "name": "newOwner",
          "type": "address"
        }
      ],
      "name": "OwnershipTransferred",
      "type": "event"
    },
    {
      "anonymous": false,
      "inputs": [
        {
          "indexed": false,
          "internalType": "address",
          "name": "account",
          "type": "address"
        }
      ],
      "name": "Paused",
      "type": "event"
    },
    {
      "anonymous": false,
      "inputs": [
        {
          "indexed": true,
          "internalType": "address",
          "name": "_solver",
          "type": "address"
        },
        {
          "indexed": false,
          "internalType": "uint256",
          "name": "_nftID",
          "type": "uint256"
        }
      ],
      "name": "Solved",
      "type": "event"
    },
    {
      "anonymous": false,
      "inputs": [
        {
          "indexed": true,
          "internalType": "address",
          "name": "from",
          "type": "address"
        },
        {
          "indexed": true,
          "internalType": "address",
          "name": "to",
          "type": "address"
        },
        {
          "indexed": true,
          "internalType": "uint256",
          "name": "tokenId",
          "type": "uint256"
        }
      ],
      "name": "Transfer",
      "type": "event"
    },
    {
      "anonymous": false,
      "inputs": [
        {
          "indexed": false,
          "internalType": "address",
          "name": "account",
          "type": "address"
        }
      ],
      "name": "Unpaused",
      "type": "event"
    },
    {
      "inputs": [
        {
          "internalType": "address",
          "name": "to",
          "type": "address"
        },
        {
          "internalType": "uint256",
          "name": "tokenId",
          "type": "uint256"
        }
      ],
      "name": "approve",
      "outputs": [],
      "stateMutability": "nonpayable",
      "type": "function"
    },
    {
      "inputs": [
        {
          "internalType": "address",
          "name": "owner",
          "type": "address"
        }
      ],
      "name": "balanceOf",
      "outputs": [
        {
          "internalType": "uint256",
          "name": "",
          "type": "uint256"
        }
      ],
      "stateMutability": "view",
      "type": "function"
    },
    {
      "inputs": [],
      "name": "baseURI",
      "outputs": [
        {
          "internalType": "string",
          "name": "",
          "type": "string"
        }
      ],
      "stateMutability": "view",
      "type": "function"
    },
    {
      "inputs": [
        {
          "internalType": "uint256",
          "name": "tokenId",
          "type": "uint256"
        }
      ],
      "name": "getApproved",
      "outputs": [
        {
          "internalType": "address",
          "name": "",
          "type": "address"
        }
      ],
      "stateMutability": "view",
      "type": "function"
    },
    {
      "inputs": [
        {
          "internalType": "address",
          "name": "owner",
          "type": "address"
        },
        {
          "internalType": "address",
          "name": "operator",
          "type": "address"
        }
      ],
      "name": "isApprovedForAll",
      "outputs": [
        {
          "internalType": "bool",
          "name": "",
          "type": "bool"
        }
      ],
      "stateMutability": "view",
      "type": "function"
    },
    {
      "inputs": [],
      "name": "name",
      "outputs": [
        {
          "internalType": "string",
          "name": "",
          "type": "string"
        }
      ],
      "stateMutability": "view",
      "type": "function"
    },
    {
      "inputs": [],
      "name": "owner",
      "outputs": [
        {
          "internalType": "address",
          "name": "",
          "type": "address"
        }
      ],
      "stateMutability": "view",
      "type": "function"
    },
    {
      "inputs": [
        {
          "internalType": "uint256",
          "name": "tokenId",
          "type": "uint256"
        }
      ],
      "name": "ownerOf",
      "outputs": [
        {
          "internalType": "address",
          "name": "",
          "type": "address"
        }
      ],
      "stateMutability": "view",
      "type": "function"
    },
    {
      "inputs": [],
      "name": "pause",
      "outputs": [],
      "stateMutability": "nonpayable",
      "type": "function"
    },
    {
      "inputs": [],
      "name": "paused",
      "outputs": [
        {
          "internalType": "bool",
          "name": "",
          "type": "bool"
        }
      ],
      "stateMutability": "view",
      "type": "function"
    },
    {
      "inputs": [],
      "name": "refundingGasPrice",
      "outputs": [
        {
          "internalType": "uint256",
          "name": "",
          "type": "uint256"
        }
      ],
      "stateMutability": "view",
      "type": "function"
    },
    {
      "inputs": [],
      "name": "renounceOwnership",
      "outputs": [],
      "stateMutability": "nonpayable",
      "type": "function"
    },
    {
      "inputs": [
        {
          "internalType": "address",
          "name": "from",
          "type": "address"
        },
        {
          "internalType": "address",
          "name": "to",
          "type": "address"
        },
        {
          "internalType": "uint256",
          "name": "tokenId",
          "type": "uint256"
        }
      ],
      "name": "safeTransferFrom",
      "outputs": [],
      "stateMutability": "nonpayable",
      "type": "function"
    },
    {
      "inputs": [
        {
          "internalType": "address",
          "name": "from",
          "type": "address"
        },
        {
          "internalType": "address",
          "name": "to",
          "type": "address"
        },
        {
          "internalType": "uint256",
          "name": "tokenId",
          "type": "uint256"
        },
        {
          "internalType": "bytes",
          "name": "_data",
          "type": "bytes"
        }
      ],
      "name": "safeTransferFrom",
      "outputs": [],
      "stateMutability": "nonpayable",
      "type": "function"
    },
    {
      "inputs": [
        {
          "internalType": "address",
          "name": "operator",
          "type": "address"
        },
        {
          "internalType": "bool",
          "name": "approved",
          "type": "bool"
        }
      ],
      "name": "setApprovalForAll",
      "outputs": [],
      "stateMutability": "nonpayable",
      "type": "function"
    },
    {
      "inputs": [
        {
          "internalType": "string",
          "name": "uri",
          "type": "string"
        }
      ],
      "name": "setBaseURI",
      "outputs": [],
      "stateMutability": "nonpayable",
      "type": "function"
    },
    {
      "inputs": [
        {
          "internalType": "uint256",
          "name": "_refundingGasPrice",
          "type": "uint256"
        }
      ],
      "name": "setRefundingGasPrice",
      "outputs": [],
      "stateMutability": "nonpayable",
      "type": "function"
    },
    {
      "inputs": [
        {
          "internalType": "uint256[8]",
          "name": "_proof",
          "type": "uint256[8]"
        }
      ],
      "name": "solve",
      "outputs": [],
      "stateMutability": "nonpayable",
      "type": "function"
    },
    {
      "inputs": [
        {
          "internalType": "bytes4",
          "name": "interfaceId",
          "type": "bytes4"
        }
      ],
      "name": "supportsInterface",
      "outputs": [
        {
          "internalType": "bool",
          "name": "",
          "type": "bool"
        }
      ],
      "stateMutability": "view",
      "type": "function"
    },
    {
      "inputs": [],
      "name": "symbol",
      "outputs": [
        {
          "internalType": "string",
          "name": "",
          "type": "string"
        }
      ],
      "stateMutability": "view",
      "type": "function"
    },
    {
      "inputs": [
        {
          "internalType": "uint256",
          "name": "",
          "type": "uint256"
        }
      ],
      "name": "tokenURI",
      "outputs": [
        {
          "internalType": "string",
          "name": "",
          "type": "string"
        }
      ],
      "stateMutability": "view",
      "type": "function"
    },
    {
      "inputs": [
        {
          "internalType": "address",
          "name": "from",
          "type": "address"
        },
        {
          "internalType": "address",
          "name": "to",
          "type": "address"
        },
        {
          "internalType": "uint256",
          "name": "tokenId",
          "type": "uint256"
        }
      ],
      "name": "transferFrom",
      "outputs": [],
      "stateMutability": "nonpayable",
      "type": "function"
    },
    {
      "inputs": [
        {
          "internalType": "address",
          "name": "newOwner",
          "type": "address"
        }
      ],
      "name": "transferOwnership",
      "outputs": [],
      "stateMutability": "nonpayable",
      "type": "function"
    },
    {
      "inputs": [],
      "name": "unpause",
      "outputs": [],
      "stateMutability": "nonpayable",
      "type": "function"
    },
    {
      "inputs": [
        {
          "internalType": "uint256[2]",
          "name": "a",
          "type": "uint256[2]"
        },
        {
          "internalType": "uint256[2][2]",
          "name": "b",
          "type": "uint256[2][2]"
        },
        {
          "internalType": "uint256[2]",
          "name": "c",
          "type": "uint256[2]"
        },
        {
          "internalType": "uint256[2]",
          "name": "input",
          "type": "uint256[2]"
        }
      ],
      "name": "verifyProof",
      "outputs": [
        {
          "internalType": "bool",
          "name": "r",
          "type": "bool"
        }
      ],
      "stateMutability": "view",
      "type": "function"
    },
    {
      "inputs": [],
      "name": "withdraw",
      "outputs": [],
      "stateMutability": "nonpayable",
      "type": "function"
    },
    {
      "stateMutability": "payable",
      "type": "receive"
    }
  ],
  "bytecode": "0x60806040523480156200001157600080fd5b50604051620037e3380380620037e3833981016040819052620000349162000255565b6040518060400160405280600b81526020016a23b937ba342430b1b5b2b960a91b8152506040518060400160405280600281526020016108e960f31b8152506200008d62000087620000e360201b60201c565b620000e7565b6000805460ff60a01b191690558151620000af906001906020850190620001af565b508051620000c5906002906020840190620001af565b505050620000d9826200013760201b60201c565b600b555062000387565b3390565b600080546001600160a01b038381166001600160a01b0319831681178455604051919092169283917f8be0079c531659141344cd1fd0a4f28419497f9722a3daafe3b4186f6b6457e09190a35050565b6000546001600160a01b03163314620001965760405162461bcd60e51b815260206004820181905260248201527f4f776e61626c653a2063616c6c6572206973206e6f7420746865206f776e6572604482015260640160405180910390fd5b8051620001ab90600a906020840190620001af565b5050565b828054620001bd9062000334565b90600052602060002090601f016020900481019282620001e157600085556200022c565b82601f10620001fc57805160ff19168380011785556200022c565b828001600101855582156200022c579182015b828111156200022c5782518255916020019190600101906200020f565b506200023a9291506200023e565b5090565b5b808211156200023a57600081556001016200023f565b6000806040838503121562000268578182fd5b82516001600160401b03808211156200027f578384fd5b818501915085601f83011262000293578384fd5b815181811115620002a857620002a862000371565b604051601f8201601f19908116603f01168101908382118183101715620002d357620002d362000371565b81604052828152602093508884848701011115620002ef578687fd5b8691505b82821015620003125784820184015181830185015290830190620002f3565b828211156200032357868484830101525b969092015195979596505050505050565b600181811c908216806200034957607f821691505b602082108114156200036b57634e487b7160e01b600052602260045260246000fd5b50919050565b634e487b7160e01b600052604160045260246000fd5b61344c80620003976000396000f3fe6080604052600436106101a55760003560e01c80636c0360eb116100e1578063a22cb4651161008a578063e985e9c511610064578063e985e9c51461046b578063ebde7d16146104b4578063f2fde38b146104ca578063f5c9d69e146104ea57600080fd5b8063a22cb4651461040b578063b88d4fde1461042b578063c87b56dd1461044b57600080fd5b80638456cb59116100bb5780638456cb59146103c35780638da5cb5b146103d857806395d89b41146103f657600080fd5b80636c0360eb1461036b57806370a0823114610380578063715018a6146103ae57600080fd5b80633ccfd60b1161014e57806355f804b31161012857806355f804b3146102ec5780635c3b96e01461030c5780635c975abb1461032c5780636352211e1461034b57600080fd5b80633ccfd60b146102a25780633f4ba83a146102b757806342842e0e146102cc57600080fd5b8063095ea7b31161017f578063095ea7b3146102405780631f520a781461026257806323b872dd1461028257600080fd5b806301ffc9a7146101b157806306fdde03146101e6578063081812fc1461020857600080fd5b366101ac57005b600080fd5b3480156101bd57600080fd5b506101d16101cc3660046131c0565b61050a565b60405190151581526020015b60405180910390f35b3480156101f257600080fd5b506101fb61051b565b6040516101dd91906132dd565b34801561021457600080fd5b5061022861022336600461323e565b6105ad565b6040516001600160a01b0390911681526020016101dd565b34801561024c57600080fd5b5061026061025b3660046130c9565b610647565b005b34801561026e57600080fd5b5061026061027d36600461323e565b61077b565b34801561028e57600080fd5b5061026061029d366004612fdb565b61081a565b3480156102ae57600080fd5b506102606108a1565b3480156102c357600080fd5b5061026061092d565b3480156102d857600080fd5b506102606102e7366004612fdb565b6109ea565b3480156102f857600080fd5b506102606103073660046131f8565b610a05565b34801561031857600080fd5b50610260610327366004613197565b610a72565b34801561033857600080fd5b50600054600160a01b900460ff166101d1565b34801561035757600080fd5b5061022861036636600461323e565b610d93565b34801561037757600080fd5b506101fb610e1e565b34801561038c57600080fd5b506103a061039b366004612f88565b610eac565b6040519081526020016101dd565b3480156103ba57600080fd5b50610260610f46565b3480156103cf57600080fd5b50610260610faa565b3480156103e457600080fd5b506000546001600160a01b0316610228565b34801561040257600080fd5b506101fb611059565b34801561041757600080fd5b5061026061042636600461308f565b611068565b34801561043757600080fd5b50610260610446366004613016565b611073565b34801561045757600080fd5b506101fb61046636600461323e565b611101565b34801561047757600080fd5b506101d1610486366004612fa9565b6001600160a01b03918216600090815260066020908152604080832093909416825291909152205460ff1690565b3480156104c057600080fd5b506103a0600b5481565b3480156104d657600080fd5b506102606104e5366004612f88565b61110b565b3480156104f657600080fd5b506101d16105053660046130f2565b6111ed565b600061051582611321565b92915050565b60606001805461052a90613367565b80601f016020809104026020016040519081016040528092919081815260200182805461055690613367565b80156105a35780601f10610578576101008083540402835291602001916105a3565b820191906000526020600020905b81548152906001019060200180831161058657829003601f168201915b5050505050905090565b6000818152600360205260408120546001600160a01b031661062b5760405162461bcd60e51b815260206004820152602c60248201527f4552433732313a20617070726f76656420717565727920666f72206e6f6e657860448201526b34b9ba32b73a103a37b5b2b760a11b60648201526084015b60405180910390fd5b506000908152600560205260409020546001600160a01b031690565b600061065282610d93565b9050806001600160a01b0316836001600160a01b031614156106c05760405162461bcd60e51b815260206004820152602160248201527f4552433732313a20617070726f76616c20746f2063757272656e74206f776e656044820152603960f91b6064820152608401610622565b336001600160a01b03821614806106fa57506001600160a01b038116600090815260066020908152604080832033845290915290205460ff165b61076c5760405162461bcd60e51b815260206004820152603860248201527f4552433732313a20617070726f76652063616c6c6572206973206e6f74206f7760448201527f6e6572206e6f7220617070726f76656420666f7220616c6c00000000000000006064820152608401610622565b6107768383611371565b505050565b6000546001600160a01b031633146107d55760405162461bcd60e51b815260206004820181905260248201527f4f776e61626c653a2063616c6c6572206973206e6f7420746865206f776e65726044820152606401610622565b600b80549082905560408051828152602081018490527f557a0c98495586b2b6d09f82bc64170c4363778270385dbf35b151ee05980a1b910160405180910390a15050565b61082433826113df565b6108965760405162461bcd60e51b815260206004820152603160248201527f4552433732313a207472616e736665722063616c6c6572206973206e6f74206f60448201527f776e6572206e6f7220617070726f7665640000000000000000000000000000006064820152608401610622565b6107768383836114d2565b6000546001600160a01b031633146108fb5760405162461bcd60e51b815260206004820181905260248201527f4f776e61626c653a2063616c6c6572206973206e6f7420746865206f776e65726044820152606401610622565b604051339081904780156108fc02916000818181858888f19350505050158015610929573d6000803e3d6000fd5b5050565b6000546001600160a01b031633146109875760405162461bcd60e51b815260206004820181905260248201527f4f776e61626c653a2063616c6c6572206973206e6f7420746865206f776e65726044820152606401610622565b600054600160a01b900460ff166109e05760405162461bcd60e51b815260206004820152601460248201527f5061757361626c653a206e6f74207061757365640000000000000000000000006044820152606401610622565b6109e8611691565b565b61077683838360405180602001604052806000815250611073565b6000546001600160a01b03163314610a5f5760405162461bcd60e51b815260206004820181905260248201527f4f776e61626c653a2063616c6c6572206973206e6f7420746865206f776e65726044820152606401610622565b805161092990600a906020840190612cce565b60005a600054909150600160a01b900460ff1615610ac55760405162461bcd60e51b815260206004820152601060248201526f14185d5cd8589b194e881c185d5cd95960821b6044820152606401610622565b3360009081526009602052604090205460ff1615610b2f5760405162461bcd60e51b815260206004820152602160248201527f50757a7a6c653a20796f7520616c7265616479206861766520746865204e46546044820152602160f81b6064820152608401610622565b60408051610100818101909252610b5e9184906008908390839080828437600092019190915250611737915050565b610bd05760405162461bcd60e51b815260206004820152602960248201527f50757a7a6c653a20696e76616c6964206669656c6420656c656d656e7428732960448201527f20696e2070726f6f6600000000000000000000000000000000000000000000006064820152608401610622565b6040805180820182528335815260208085013581830152825160808082018552868501358286019081526060808901359084015282528451808601865290870135815260a087013581840152818301528351808501855260c0870135815260e0870135818401528451808601909552338086526001938601849052949293610c5b93909291906111ed565b610ca75760405162461bcd60e51b815260206004820152601560248201527f50757a7a6c653a20496e76616c69642070726f6f6600000000000000000000006044820152606401610622565b610cb033611819565b336000818152600960205260409020805460ff191660019081179091557fb240f10dbc63a4c0da34911ca0d96ed72de66280583ee00b5c936bfa650d21a690610cf860085490565b610d029190613350565b60405190815260200160405180910390a2505060005a610d229083613350565b610d2e90616f69613319565b905060003390506000600b543a10610d4857600b54610d4a565b3a5b90506001600160a01b0382166108fc610d638386613331565b6040518115909202916000818181858888f19350505050158015610d8b573d6000803e3d6000fd5b505050505050565b6000818152600360205260408120546001600160a01b0316806105155760405162461bcd60e51b815260206004820152602960248201527f4552433732313a206f776e657220717565727920666f72206e6f6e657869737460448201527f656e7420746f6b656e00000000000000000000000000000000000000000000006064820152608401610622565b600a8054610e2b90613367565b80601f0160208091040260200160405190810160405280929190818152602001828054610e5790613367565b8015610ea45780601f10610e7957610100808354040283529160200191610ea4565b820191906000526020600020905b815481529060010190602001808311610e8757829003601f168201915b505050505081565b60006001600160a01b038216610f2a5760405162461bcd60e51b815260206004820152602a60248201527f4552433732313a2062616c616e636520717565727920666f7220746865207a6560448201527f726f2061646472657373000000000000000000000000000000000000000000006064820152608401610622565b506001600160a01b031660009081526004602052604090205490565b6000546001600160a01b03163314610fa05760405162461bcd60e51b815260206004820181905260248201527f4f776e61626c653a2063616c6c6572206973206e6f7420746865206f776e65726044820152606401610622565b6109e8600061188e565b6000546001600160a01b031633146110045760405162461bcd60e51b815260206004820181905260248201527f4f776e61626c653a2063616c6c6572206973206e6f7420746865206f776e65726044820152606401610622565b600054600160a01b900460ff16156110515760405162461bcd60e51b815260206004820152601060248201526f14185d5cd8589b194e881c185d5cd95960821b6044820152606401610622565b6109e86118de565b60606002805461052a90613367565b610929338383611966565b61107d33836113df565b6110ef5760405162461bcd60e51b815260206004820152603160248201527f4552433732313a207472616e736665722063616c6c6572206973206e6f74206f60448201527f776e6572206e6f7220617070726f7665640000000000000000000000000000006064820152608401610622565b6110fb84848484611a35565b50505050565b6060610515611ab3565b6000546001600160a01b031633146111655760405162461bcd60e51b815260206004820181905260248201527f4f776e61626c653a2063616c6c6572206973206e6f7420746865206f776e65726044820152606401610622565b6001600160a01b0381166111e15760405162461bcd60e51b815260206004820152602660248201527f4f776e61626c653a206e6577206f776e657220697320746865207a65726f206160448201527f64647265737300000000000000000000000000000000000000000000000000006064820152608401610622565b6111ea8161188e565b50565b60006111f7612d52565b60408051808201825287518152602080890151818301529083528151608081018352875151818401908152885183015160608084019190915290825283518085018552898401805151825251840151818501528284015284830191909152825180840184528751815287830151818401528484015282516002808252918101845260009390928301908036833701905050905060005b60028110156112f8578481600281106112b657634e487b7160e01b600052603260045260246000fd5b60200201518282815181106112db57634e487b7160e01b600052603260045260246000fd5b6020908102919091010152806112f0816133a2565b91505061128d565b506113038183611ac2565b61131257600192505050611319565b6000925050505b949350505050565b60006001600160e01b031982166380ac58cd60e01b148061135257506001600160e01b03198216635b5e139f60e01b145b8061051557506301ffc9a760e01b6001600160e01b0319831614610515565b600081815260056020526040902080546001600160a01b0319166001600160a01b03841690811790915581906113a682610d93565b6001600160a01b03167f8c5be1e5ebec7d5bd14f71427d1e84f3dd0314c0f7b2291e5b200ac8c7c3b92560405160405180910390a45050565b6000818152600360205260408120546001600160a01b03166114585760405162461bcd60e51b815260206004820152602c60248201527f4552433732313a206f70657261746f7220717565727920666f72206e6f6e657860448201526b34b9ba32b73a103a37b5b2b760a11b6064820152608401610622565b600061146383610d93565b9050806001600160a01b0316846001600160a01b0316148061149e5750836001600160a01b0316611493846105ad565b6001600160a01b0316145b8061131957506001600160a01b0380821660009081526006602090815260408083209388168352929052205460ff16611319565b826001600160a01b03166114e582610d93565b6001600160a01b0316146115615760405162461bcd60e51b815260206004820152602560248201527f4552433732313a207472616e736665722066726f6d20696e636f72726563742060448201527f6f776e65720000000000000000000000000000000000000000000000000000006064820152608401610622565b6001600160a01b0382166115c35760405162461bcd60e51b8152602060048201526024808201527f4552433732313a207472616e7366657220746f20746865207a65726f206164646044820152637265737360e01b6064820152608401610622565b6115ce838383611ce3565b6115d9600082611371565b6001600160a01b0383166000908152600460205260408120805460019290611602908490613350565b90915550506001600160a01b0382166000908152600460205260408120805460019290611630908490613319565b909155505060008181526003602052604080822080546001600160a01b0319166001600160a01b0386811691821790925591518493918716917fddf252ad1be2c89b69c2b068fc378daa952ba7f163c4a11628f55a4df523b3ef91a4505050565b600054600160a01b900460ff166116ea5760405162461bcd60e51b815260206004820152601460248201527f5061757361626c653a206e6f74207061757365640000000000000000000000006044820152606401610622565b6000805460ff60a01b191690557f5db9ee0a495bf2e6ff9c91a7834c1ba4fdd244a5e8aa4e537bd38aeae4b073aa335b6040516001600160a01b03909116815260200160405180910390a1565b805160009060008051602061342083398151915211801561176957506020820151600080516020613420833981519152115b801561178657506040820151600080516020613420833981519152115b80156117a357506060820151600080516020613420833981519152115b80156117c057506080820151600080516020613420833981519152115b80156117dd575060a0820151600080516020613420833981519152115b80156117fa575060c0820151600080516020613420833981519152115b801561051557505060e001516000805160206134208339815191521190565b600061182460085490565b9050600c81106118765760405162461bcd60e51b815260206004820152601160248201527f50757a7a6c653a20546f6f206c617465210000000000000000000000000000006044820152606401610622565b611884600880546001019055565b6109298282611d3a565b600080546001600160a01b038381166001600160a01b0319831681178455604051919092169283917f8be0079c531659141344cd1fd0a4f28419497f9722a3daafe3b4186f6b6457e09190a35050565b600054600160a01b900460ff161561192b5760405162461bcd60e51b815260206004820152601060248201526f14185d5cd8589b194e881c185d5cd95960821b6044820152606401610622565b6000805460ff60a01b1916600160a01b1790557f62e78cea01bee320cd4e420270b5ea74000d11b0c9f74754ebdbfc544b05a25861171a3390565b816001600160a01b0316836001600160a01b031614156119c85760405162461bcd60e51b815260206004820152601960248201527f4552433732313a20617070726f766520746f2063616c6c6572000000000000006044820152606401610622565b6001600160a01b03838116600081815260066020908152604080832094871680845294825291829020805460ff191686151590811790915591519182527f17307eab39ab6107e8899845ad3d59bd9653f200f220920489ca2b5937696c31910160405180910390a3505050565b611a408484846114d2565b611a4c84848484611d54565b6110fb5760405162461bcd60e51b815260206004820152603260248201527f4552433732313a207472616e7366657220746f206e6f6e20455243373231526560448201527131b2b4bb32b91034b6b83632b6b2b73a32b960711b6064820152608401610622565b6060600a805461052a90613367565b600060008051602061342083398151915281611adc611ea9565b905080608001515185516001611af29190613319565b14611b3f5760405162461bcd60e51b815260206004820152601260248201527f76657269666965722d6261642d696e70757400000000000000000000000000006044820152606401610622565b604080518082019091526000808252602082018190525b8651811015611c5a5783878281518110611b8057634e487b7160e01b600052603260045260246000fd5b602002602001015110611bd55760405162461bcd60e51b815260206004820152601f60248201527f76657269666965722d6774652d736e61726b2d7363616c61722d6669656c64006044820152606401610622565b611c4682611c418560800151846001611bee9190613319565b81518110611c0c57634e487b7160e01b600052603260045260246000fd5b60200260200101518a8581518110611c3457634e487b7160e01b600052603260045260246000fd5b60200260200101516122e6565b61238d565b915080611c52816133a2565b915050611b56565b50611c91818360800151600081518110611c8457634e487b7160e01b600052603260045260246000fd5b602002602001015161238d565b9050611cc7611ca38660000151612430565b8660200151846000015185602001518587604001518b6040015189606001516124cf565b611cd75760019350505050610515565b50600095945050505050565b6001600160a01b038316156107765760405162461bcd60e51b815260206004820152601960248201527f546f6b656e206973206e6f74207472616e7366657261626c65000000000000006044820152606401610622565b6109298282604051806020016040528060008152506126ca565b60006001600160a01b0384163b15611ea157604051630a85bd0160e11b81526001600160a01b0385169063150b7a0290611d989033908990889088906004016132a1565b602060405180830381600087803b158015611db257600080fd5b505af1925050508015611de2575060408051601f3d908101601f19168201909252611ddf918101906131dc565b60015b611e87573d808015611e10576040519150601f19603f3d011682016040523d82523d6000602084013e611e15565b606091505b508051611e7f5760405162461bcd60e51b815260206004820152603260248201527f4552433732313a207472616e7366657220746f206e6f6e20455243373231526560448201527131b2b4bb32b91034b6b83632b6b2b73a32b960711b6064820152608401610622565b805181602001fd5b6001600160e01b031916630a85bd0160e11b149050611319565b506001611319565b611eb1612da3565b6040805180820182527f2d4d9aa7e302d9df41749d5507949d05dbea33fbb16c643b22f599a2be6df2e281527f14bedd503c37ceb061d8ec60209fe345ce89830a19230301f076caff004d19266020808301919091529083528151608080820184527f0967032fcbf776d1afc985f88877f182d38480a653f2decaa9794cbc3bf3060c8285019081527f0e187847ad4c798374d0d6732bf501847dd68bc0e071241e0213bc7fc13db7ab606080850191909152908352845180860186527f304cfbd1e08a704a99f5e847d93f8c3caafddec46b7a0d379da69a4d112346a781527f1739c1b1a457a8c7313123d24d2f9192f896b7c63eea05a9d57f06547ad0cec8818601528385015285840192909252835180820185527f198e9393920d483a7260bfb731fb5d25f1aa493335a9e71297e485b7aef312c28186019081527f1800deef121f1e76426a00665e5c4479674322d4f75edadd46debd5cd992f6ed828501528152845180860186527f090689d0585ff075ec9e99ad690c3395bc4b313370b38ef355acdadcd122975b81527f12c85ea5db8c6deb4aab71808dcb408fe3d1e7690c43d37b4ce6cc0166fa7daa818601528185015285850152835180820185527f1bdb443ce61ebcf93daed4215a57e1cec90ca64973023e31197a112e8cee72f68186019081527f117e26c4235f42625b3404f2973059814ff260dba7176d7aae910f493a8e1fb5828501528152845180860186527f196e247a12f580e36894f256f0c122393489b4c213b3e913250feee806ca45ff81527f2fedff4e4bbcbf9f1c56e28a060d50eef5f54e2aab897f6b465acd2ed005ae91818601528185015291850191909152825160038082529181019093529082015b604080518082019091526000808252602082015281526020019060019003908161212d57505060808201908152604080518082019091527f05485ff1626b69648267be351216e9183b0b1e70ad5d0560d39f464025c5b96e81527f25501c28e0d0675f1221eb7bd5394fcc8b766ba7f66668b011c4160b1111ac4a6020820152905180516000906121ce57634e487b7160e01b600052603260045260246000fd5b602002602001018190525060405180604001604052807f2eb55926b0c6e5af70c4195cf19f82c9eb88a64cfbd2441874855aab65e08b8081526020017f12ee91040590111d7abb205a27edbbfcd46ff527a2b87376d298314310278426815250816080015160018151811061225357634e487b7160e01b600052603260045260246000fd5b602002602001018190525060405180604001604052807f2ac5ceb909ad8d6539e8e4d362b7c23f8b34ab962032578e3b2adfbab222d0da81526020017f0c2258ef2d506b7a0678e8b56790c80c2235b0089c4855e87a59bf952cc9f90b81525081608001516002815181106122d857634e487b7160e01b600052603260045260246000fd5b602002602001018190525090565b6040805180820190915260008082526020820152612302612df4565b835181526020808501519082015260408101839052600060608360808460076107d05a03fa905080801561233557612337565bfe5b50806123855760405162461bcd60e51b815260206004820152601260248201527f70616972696e672d6d756c2d6661696c656400000000000000000000000000006044820152606401610622565b505092915050565b60408051808201909152600080825260208201526123a9612e12565b8351815260208085015181830152835160408301528301516060808301919091526000908360c08460066107d05a03fa90508080156123355750806123855760405162461bcd60e51b815260206004820152601260248201527f70616972696e672d6164642d6661696c656400000000000000000000000000006044820152606401610622565b604080518082019091526000808252602082015281517f30644e72e131a029b85045b68181585d97816a916871ca8d3c208c16d87cfd479015801561247757506020830151155b156124975750506040805180820190915260008082526020820152919050565b6040518060400160405280846000015181526020018285602001516124bc91906133bd565b6124c69084613350565b90529392505050565b60408051600480825260a08201909252600091829190816020015b60408051808201909152600080825260208201528152602001906001900390816124ea57505060408051600480825260a0820190925291925060009190602082015b612534612e30565b81526020019060019003908161252c5790505090508a8260008151811061256b57634e487b7160e01b600052603260045260246000fd5b6020026020010181905250888260018151811061259857634e487b7160e01b600052603260045260246000fd5b602002602001018190525086826002815181106125c557634e487b7160e01b600052603260045260246000fd5b602002602001018190525084826003815181106125f257634e487b7160e01b600052603260045260246000fd5b6020026020010181905250898160008151811061261f57634e487b7160e01b600052603260045260246000fd5b6020026020010181905250878160018151811061264c57634e487b7160e01b600052603260045260246000fd5b6020026020010181905250858160028151811061267957634e487b7160e01b600052603260045260246000fd5b602002602001018190525083816003815181106126a657634e487b7160e01b600052603260045260246000fd5b60200260200101819052506126bb8282612748565b9b9a5050505050505050505050565b6126d48383612b80565b6126e16000848484611d54565b6107765760405162461bcd60e51b815260206004820152603260248201527f4552433732313a207472616e7366657220746f206e6f6e20455243373231526560448201527131b2b4bb32b91034b6b83632b6b2b73a32b960711b6064820152608401610622565b6000815183511461279b5760405162461bcd60e51b815260206004820152601660248201527f70616972696e672d6c656e677468732d6661696c6564000000000000000000006044820152606401610622565b825160006127aa826006613331565b905060008167ffffffffffffffff8111156127d557634e487b7160e01b600052604160045260246000fd5b6040519080825280602002602001820160405280156127fe578160200160208202803683370190505b50905060005b83811015612afd5786818151811061282c57634e487b7160e01b600052603260045260246000fd5b602002602001015160000151828260066128469190613331565b612851906000613319565b8151811061286f57634e487b7160e01b600052603260045260246000fd5b60200260200101818152505086818151811061289b57634e487b7160e01b600052603260045260246000fd5b602002602001015160200151828260066128b59190613331565b6128c0906001613319565b815181106128de57634e487b7160e01b600052603260045260246000fd5b60200260200101818152505085818151811061290a57634e487b7160e01b600052603260045260246000fd5b6020908102919091010151515182612923836006613331565b61292e906002613319565b8151811061294c57634e487b7160e01b600052603260045260246000fd5b60200260200101818152505085818151811061297857634e487b7160e01b600052603260045260246000fd5b60209081029190910181015151015182612993836006613331565b61299e906003613319565b815181106129bc57634e487b7160e01b600052603260045260246000fd5b6020026020010181815250508581815181106129e857634e487b7160e01b600052603260045260246000fd5b602002602001015160200151600060028110612a1457634e487b7160e01b600052603260045260246000fd5b602002015182612a25836006613331565b612a30906004613319565b81518110612a4e57634e487b7160e01b600052603260045260246000fd5b602002602001018181525050858181518110612a7a57634e487b7160e01b600052603260045260246000fd5b602002602001015160200151600160028110612aa657634e487b7160e01b600052603260045260246000fd5b602002015182612ab7836006613331565b612ac2906005613319565b81518110612ae057634e487b7160e01b600052603260045260246000fd5b602090810291909101015280612af5816133a2565b915050612804565b50612b06612e50565b6000602082602086026020860160086107d05a03fa9050808015612335575080612b725760405162461bcd60e51b815260206004820152601560248201527f70616972696e672d6f70636f64652d6661696c656400000000000000000000006044820152606401610622565b505115159695505050505050565b6001600160a01b038216612bd65760405162461bcd60e51b815260206004820181905260248201527f4552433732313a206d696e7420746f20746865207a65726f20616464726573736044820152606401610622565b6000818152600360205260409020546001600160a01b031615612c3b5760405162461bcd60e51b815260206004820152601c60248201527f4552433732313a20746f6b656e20616c7265616479206d696e746564000000006044820152606401610622565b612c4760008383611ce3565b6001600160a01b0382166000908152600460205260408120805460019290612c70908490613319565b909155505060008181526003602052604080822080546001600160a01b0319166001600160a01b03861690811790915590518392907fddf252ad1be2c89b69c2b068fc378daa952ba7f163c4a11628f55a4df523b3ef908290a45050565b828054612cda90613367565b90600052602060002090601f016020900481019282612cfc5760008555612d42565b82601f10612d1557805160ff1916838001178555612d42565b82800160010185558215612d42579182015b82811115612d42578251825591602001919060010190612d27565b50612d4e929150612e6e565b5090565b6040805160a081019091526000606082018181526080830191909152815260208101612d7c612e30565b8152602001612d9e604051806040016040528060008152602001600081525090565b905290565b6040805160e08101909152600060a0820181815260c0830191909152815260208101612dcd612e30565b8152602001612dda612e30565b8152602001612de7612e30565b8152602001606081525090565b60405180606001604052806003906020820280368337509192915050565b60405180608001604052806004906020820280368337509192915050565b6040518060400160405280612e43612e83565b8152602001612d9e612e83565b60405180602001604052806001906020820280368337509192915050565b5b80821115612d4e5760008155600101612e6f565b60405180604001604052806002906020820280368337509192915050565b600067ffffffffffffffff80841115612ebc57612ebc6133f3565b604051601f8501601f19908116603f01168101908282118183101715612ee457612ee46133f3565b81604052809350858152868686011115612efd57600080fd5b858560208301376000602087830101525050509392505050565b80356001600160a01b0381168114612f2e57600080fd5b919050565b600082601f830112612f43578081fd5b612f4b6132f0565b808385604086011115612f5c578384fd5b835b6002811015612f7d578135845260209384019390910190600101612f5e565b509095945050505050565b600060208284031215612f99578081fd5b612fa282612f17565b9392505050565b60008060408385031215612fbb578081fd5b612fc483612f17565b9150612fd260208401612f17565b90509250929050565b600080600060608486031215612fef578081fd5b612ff884612f17565b925061300660208501612f17565b9150604084013590509250925092565b6000806000806080858703121561302b578081fd5b61303485612f17565b935061304260208601612f17565b925060408501359150606085013567ffffffffffffffff811115613064578182fd5b8501601f81018713613074578182fd5b61308387823560208401612ea1565b91505092959194509250565b600080604083850312156130a1578182fd5b6130aa83612f17565b9150602083013580151581146130be578182fd5b809150509250929050565b600080604083850312156130db578182fd5b6130e483612f17565b946020939093013593505050565b6000806000806101408587031215613108578384fd5b6131128686612f33565b9350604086605f870112613124578384fd5b61312c6132f0565b8082880160c089018a811115613140578788fd5b875b6002811015613169576131558c84612f33565b855260209094019391850191600101613142565b508297506131778b82612f33565b9650505050505061318c866101008701612f33565b905092959194509250565b60006101008083850312156131aa578182fd5b8381840111156131b8578182fd5b509092915050565b6000602082840312156131d1578081fd5b8135612fa281613409565b6000602082840312156131ed578081fd5b8151612fa281613409565b600060208284031215613209578081fd5b813567ffffffffffffffff81111561321f578182fd5b8201601f8101841361322f578182fd5b61131984823560208401612ea1565b60006020828403121561324f578081fd5b5035919050565b60008151808452815b8181101561327b5760208185018101518683018201520161325f565b8181111561328c5782602083870101525b50601f01601f19169290920160200192915050565b60006001600160a01b038087168352808616602084015250836040830152608060608301526132d36080830184613256565b9695505050505050565b602081526000612fa26020830184613256565b6040805190810167ffffffffffffffff81118282101715613313576133136133f3565b60405290565b6000821982111561332c5761332c6133dd565b500190565b600081600019048311821515161561334b5761334b6133dd565b500290565b600082821015613362576133626133dd565b500390565b600181811c9082168061337b57607f821691505b6020821081141561339c57634e487b7160e01b600052602260045260246000fd5b50919050565b60006000198214156133b6576133b66133dd565b5060010190565b6000826133d857634e487b7160e01b81526012600452602481fd5b500690565b634e487b7160e01b600052601160045260246000fd5b634e487b7160e01b600052604160045260246000fd5b6001600160e01b0319811681146111ea57600080fdfe30644e72e131a029b85045b68181585d2833e84879b9709143e1f593f0000001a164736f6c6343000804000a",
  "linkReferences": {},
  "deployedLinkReferences": {}
}