{
  "_format": "hh-sol-artifact-1",
  "contractName": "Puzzle",
  "sourceName": "contracts/Puzzle.sol",
  "abi": [
    {
      "inputs": [
        {
          "internalType": "string",
          "name": "_uri",
          "type": "string"
        },
        {
          "internalType": "uint256",
          "name": "_refundingGasPrice",
          "type": "uint256"
        }
      ],
      "stateMutability": "nonpayable",
      "type": "constructor"
    },
    {
      "anonymous": false,
      "inputs": [
        {
          "indexed": true,
          "internalType": "address",
          "name": "owner",
          "type": "address"
        },
        {
          "indexed": true,
          "internalType": "address",
          "name": "approved",
          "type": "address"
        },
        {
          "indexed": true,
          "internalType": "uint256",
          "name": "tokenId",
          "type": "uint256"
        }
      ],
      "name": "Approval",
      "type": "event"
    },
    {
      "anonymous": false,
      "inputs": [
        {
          "indexed": true,
          "internalType": "address",
          "name": "owner",
          "type": "address"
        },
        {
          "indexed": true,
          "internalType": "address",
          "name": "operator",
          "type": "address"
        },
        {
          "indexed": false,
          "internalType": "bool",
          "name": "approved",
          "type": "bool"
        }
      ],
      "name": "ApprovalForAll",
      "type": "event"
    },
    {
      "anonymous": false,
      "inputs": [
        {
          "indexed": false,
          "internalType": "uint256",
          "name": "oldRefundPrice",
          "type": "uint256"
        },
        {
          "indexed": false,
          "internalType": "uint256",
          "name": "newRefundPrice",
          "type": "uint256"
        }
      ],
      "name": "GasRefundSet",
      "type": "event"
    },
    {
      "anonymous": false,
      "inputs": [
        {
          "indexed": true,
          "internalType": "address",
          "name": "previousOwner",
          "type": "address"
        },
        {
          "indexed": true,
          "internalType": "address",
          "name": "newOwner",
          "type": "address"
        }
      ],
      "name": "OwnershipTransferred",
      "type": "event"
    },
    {
      "anonymous": false,
      "inputs": [
        {
          "indexed": false,
          "internalType": "address",
          "name": "account",
          "type": "address"
        }
      ],
      "name": "Paused",
      "type": "event"
    },
    {
      "anonymous": false,
      "inputs": [
        {
          "indexed": true,
          "internalType": "address",
          "name": "_solver",
          "type": "address"
        },
        {
          "indexed": false,
          "internalType": "uint256",
          "name": "_nftID",
          "type": "uint256"
        }
      ],
      "name": "Solved",
      "type": "event"
    },
    {
      "anonymous": false,
      "inputs": [
        {
          "indexed": true,
          "internalType": "address",
          "name": "from",
          "type": "address"
        },
        {
          "indexed": true,
          "internalType": "address",
          "name": "to",
          "type": "address"
        },
        {
          "indexed": true,
          "internalType": "uint256",
          "name": "tokenId",
          "type": "uint256"
        }
      ],
      "name": "Transfer",
      "type": "event"
    },
    {
      "anonymous": false,
      "inputs": [
        {
          "indexed": false,
          "internalType": "address",
          "name": "account",
          "type": "address"
        }
      ],
      "name": "Unpaused",
      "type": "event"
    },
    {
      "inputs": [
        {
          "internalType": "address",
          "name": "to",
          "type": "address"
        },
        {
          "internalType": "uint256",
          "name": "tokenId",
          "type": "uint256"
        }
      ],
      "name": "approve",
      "outputs": [],
      "stateMutability": "nonpayable",
      "type": "function"
    },
    {
      "inputs": [
        {
          "internalType": "address",
          "name": "owner",
          "type": "address"
        }
      ],
      "name": "balanceOf",
      "outputs": [
        {
          "internalType": "uint256",
          "name": "",
          "type": "uint256"
        }
      ],
      "stateMutability": "view",
      "type": "function"
    },
    {
      "inputs": [],
      "name": "baseURI",
      "outputs": [
        {
          "internalType": "string",
          "name": "",
          "type": "string"
        }
      ],
      "stateMutability": "view",
      "type": "function"
    },
    {
      "inputs": [
        {
          "internalType": "uint256",
          "name": "tokenId",
          "type": "uint256"
        }
      ],
      "name": "getApproved",
      "outputs": [
        {
          "internalType": "address",
          "name": "",
          "type": "address"
        }
      ],
      "stateMutability": "view",
      "type": "function"
    },
    {
      "inputs": [
        {
          "internalType": "address",
          "name": "owner",
          "type": "address"
        },
        {
          "internalType": "address",
          "name": "operator",
          "type": "address"
        }
      ],
      "name": "isApprovedForAll",
      "outputs": [
        {
          "internalType": "bool",
          "name": "",
          "type": "bool"
        }
      ],
      "stateMutability": "view",
      "type": "function"
    },
    {
      "inputs": [],
      "name": "name",
      "outputs": [
        {
          "internalType": "string",
          "name": "",
          "type": "string"
        }
      ],
      "stateMutability": "view",
      "type": "function"
    },
    {
      "inputs": [],
      "name": "owner",
      "outputs": [
        {
          "internalType": "address",
          "name": "",
          "type": "address"
        }
      ],
      "stateMutability": "view",
      "type": "function"
    },
    {
      "inputs": [
        {
          "internalType": "uint256",
          "name": "tokenId",
          "type": "uint256"
        }
      ],
      "name": "ownerOf",
      "outputs": [
        {
          "internalType": "address",
          "name": "",
          "type": "address"
        }
      ],
      "stateMutability": "view",
      "type": "function"
    },
    {
      "inputs": [],
      "name": "pause",
      "outputs": [],
      "stateMutability": "nonpayable",
      "type": "function"
    },
    {
      "inputs": [],
      "name": "paused",
      "outputs": [
        {
          "internalType": "bool",
          "name": "",
          "type": "bool"
        }
      ],
      "stateMutability": "view",
      "type": "function"
    },
    {
      "inputs": [],
      "name": "refundingGasPrice",
      "outputs": [
        {
          "internalType": "uint256",
          "name": "",
          "type": "uint256"
        }
      ],
      "stateMutability": "view",
      "type": "function"
    },
    {
      "inputs": [],
      "name": "renounceOwnership",
      "outputs": [],
      "stateMutability": "nonpayable",
      "type": "function"
    },
    {
      "inputs": [
        {
          "internalType": "address",
          "name": "from",
          "type": "address"
        },
        {
          "internalType": "address",
          "name": "to",
          "type": "address"
        },
        {
          "internalType": "uint256",
          "name": "tokenId",
          "type": "uint256"
        }
      ],
      "name": "safeTransferFrom",
      "outputs": [],
      "stateMutability": "nonpayable",
      "type": "function"
    },
    {
      "inputs": [
        {
          "internalType": "address",
          "name": "from",
          "type": "address"
        },
        {
          "internalType": "address",
          "name": "to",
          "type": "address"
        },
        {
          "internalType": "uint256",
          "name": "tokenId",
          "type": "uint256"
        },
        {
          "internalType": "bytes",
          "name": "_data",
          "type": "bytes"
        }
      ],
      "name": "safeTransferFrom",
      "outputs": [],
      "stateMutability": "nonpayable",
      "type": "function"
    },
    {
      "inputs": [
        {
          "internalType": "address",
          "name": "operator",
          "type": "address"
        },
        {
          "internalType": "bool",
          "name": "approved",
          "type": "bool"
        }
      ],
      "name": "setApprovalForAll",
      "outputs": [],
      "stateMutability": "nonpayable",
      "type": "function"
    },
    {
      "inputs": [
        {
          "internalType": "string",
          "name": "uri",
          "type": "string"
        }
      ],
      "name": "setBaseURI",
      "outputs": [],
      "stateMutability": "nonpayable",
      "type": "function"
    },
    {
      "inputs": [
        {
          "internalType": "uint256",
          "name": "_refundingGasPrice",
          "type": "uint256"
        }
      ],
      "name": "setRefundingGasPrice",
      "outputs": [],
      "stateMutability": "nonpayable",
      "type": "function"
    },
    {
      "inputs": [
        {
          "internalType": "uint256[8]",
          "name": "_proof",
          "type": "uint256[8]"
        }
      ],
      "name": "solve",
      "outputs": [],
      "stateMutability": "nonpayable",
      "type": "function"
    },
    {
      "inputs": [
        {
          "internalType": "bytes4",
          "name": "interfaceId",
          "type": "bytes4"
        }
      ],
      "name": "supportsInterface",
      "outputs": [
        {
          "internalType": "bool",
          "name": "",
          "type": "bool"
        }
      ],
      "stateMutability": "view",
      "type": "function"
    },
    {
      "inputs": [],
      "name": "symbol",
      "outputs": [
        {
          "internalType": "string",
          "name": "",
          "type": "string"
        }
      ],
      "stateMutability": "view",
      "type": "function"
    },
    {
      "inputs": [
        {
          "internalType": "uint256",
          "name": "",
          "type": "uint256"
        }
      ],
      "name": "tokenURI",
      "outputs": [
        {
          "internalType": "string",
          "name": "",
          "type": "string"
        }
      ],
      "stateMutability": "view",
      "type": "function"
    },
    {
      "inputs": [
        {
          "internalType": "address",
          "name": "from",
          "type": "address"
        },
        {
          "internalType": "address",
          "name": "to",
          "type": "address"
        },
        {
          "internalType": "uint256",
          "name": "tokenId",
          "type": "uint256"
        }
      ],
      "name": "transferFrom",
      "outputs": [],
      "stateMutability": "nonpayable",
      "type": "function"
    },
    {
      "inputs": [
        {
          "internalType": "address",
          "name": "newOwner",
          "type": "address"
        }
      ],
      "name": "transferOwnership",
      "outputs": [],
      "stateMutability": "nonpayable",
      "type": "function"
    },
    {
      "inputs": [],
      "name": "unpause",
      "outputs": [],
      "stateMutability": "nonpayable",
      "type": "function"
    },
    {
      "inputs": [
        {
          "internalType": "uint256[2]",
          "name": "a",
          "type": "uint256[2]"
        },
        {
          "internalType": "uint256[2][2]",
          "name": "b",
          "type": "uint256[2][2]"
        },
        {
          "internalType": "uint256[2]",
          "name": "c",
          "type": "uint256[2]"
        },
        {
          "internalType": "uint256[1]",
          "name": "input",
          "type": "uint256[1]"
        }
      ],
      "name": "verifyProof",
      "outputs": [
        {
          "internalType": "bool",
          "name": "r",
          "type": "bool"
        }
      ],
      "stateMutability": "view",
      "type": "function"
    },
    {
      "inputs": [],
      "name": "withdraw",
      "outputs": [],
      "stateMutability": "nonpayable",
      "type": "function"
    },
    {
      "stateMutability": "payable",
      "type": "receive"
    }
  ],
  "bytecode": "0x60806040523480156200001157600080fd5b50604051620037af380380620037af833981016040819052620000349162000255565b6040518060400160405280600b81526020016a23b937ba342430b1b5b2b960a91b8152506040518060400160405280600281526020016108e960f31b8152506200008d62000087620000e360201b60201c565b620000e7565b6000805460ff60a01b191690558151620000af906001906020850190620001af565b508051620000c5906002906020840190620001af565b505050620000d9826200013760201b60201c565b600b555062000387565b3390565b600080546001600160a01b038381166001600160a01b0319831681178455604051919092169283917f8be0079c531659141344cd1fd0a4f28419497f9722a3daafe3b4186f6b6457e09190a35050565b6000546001600160a01b03163314620001965760405162461bcd60e51b815260206004820181905260248201527f4f776e61626c653a2063616c6c6572206973206e6f7420746865206f776e6572604482015260640160405180910390fd5b8051620001ab90600a906020840190620001af565b5050565b828054620001bd9062000334565b90600052602060002090601f016020900481019282620001e157600085556200022c565b82601f10620001fc57805160ff19168380011785556200022c565b828001600101855582156200022c579182015b828111156200022c5782518255916020019190600101906200020f565b506200023a9291506200023e565b5090565b5b808211156200023a57600081556001016200023f565b6000806040838503121562000268578182fd5b82516001600160401b03808211156200027f578384fd5b818501915085601f83011262000293578384fd5b815181811115620002a857620002a862000371565b604051601f8201601f19908116603f01168101908382118183101715620002d357620002d362000371565b81604052828152602093508884848701011115620002ef578687fd5b8691505b82821015620003125784820184015181830185015290830190620002f3565b828211156200032357868484830101525b969092015195979596505050505050565b600181811c908216806200034957607f821691505b602082108114156200036b57634e487b7160e01b600052602260045260246000fd5b50919050565b634e487b7160e01b600052604160045260246000fd5b61341880620003976000396000f3fe6080604052600436106101a55760003560e01c80636352211e116100e157806395d89b411161008a578063c87b56dd11610064578063c87b56dd1461046b578063e985e9c51461048b578063ebde7d16146104d4578063f2fde38b146104ea57600080fd5b806395d89b4114610416578063a22cb4651461042b578063b88d4fde1461044b57600080fd5b8063715018a6116100bb578063715018a6146103ce5780638456cb59146103e35780638da5cb5b146103f857600080fd5b80636352211e1461036b5780636c0360eb1461038b57806370a08231146103a057600080fd5b80633ccfd60b1161014e57806343753b4d1161012857806343753b4d146102ec57806355f804b31461030c5780635c3b96e01461032c5780635c975abb1461034c57600080fd5b80633ccfd60b146102a25780633f4ba83a146102b757806342842e0e146102cc57600080fd5b8063095ea7b31161017f578063095ea7b3146102405780631f520a781461026257806323b872dd1461028257600080fd5b806301ffc9a7146101b157806306fdde03146101e6578063081812fc1461020857600080fd5b366101ac57005b600080fd5b3480156101bd57600080fd5b506101d16101cc366004613169565b61050a565b60405190151581526020015b60405180910390f35b3480156101f257600080fd5b506101fb61051b565b6040516101dd9190613286565b34801561021457600080fd5b506102286102233660046131e7565b6105ad565b6040516001600160a01b0390911681526020016101dd565b34801561024c57600080fd5b5061026061025b36600461302d565b610647565b005b34801561026e57600080fd5b5061026061027d3660046131e7565b61077b565b34801561028e57600080fd5b5061026061029d366004612f3f565b61081a565b3480156102ae57600080fd5b506102606108a1565b3480156102c357600080fd5b5061026061092d565b3480156102d857600080fd5b506102606102e7366004612f3f565b6109ea565b3480156102f857600080fd5b506101d1610307366004613056565b610a05565b34801561031857600080fd5b506102606103273660046131a1565b610b33565b34801561033857600080fd5b50610260610347366004613140565b610ba0565b34801561035857600080fd5b50600054600160a01b900460ff166101d1565b34801561037757600080fd5b506102286103863660046131e7565b610eb3565b34801561039757600080fd5b506101fb610f3e565b3480156103ac57600080fd5b506103c06103bb366004612eec565b610fcc565b6040519081526020016101dd565b3480156103da57600080fd5b50610260611066565b3480156103ef57600080fd5b506102606110ca565b34801561040457600080fd5b506000546001600160a01b0316610228565b34801561042257600080fd5b506101fb611179565b34801561043757600080fd5b50610260610446366004612ff3565b611188565b34801561045757600080fd5b50610260610466366004612f7a565b611193565b34801561047757600080fd5b506101fb6104863660046131e7565b611221565b34801561049757600080fd5b506101d16104a6366004612f0d565b6001600160a01b03918216600090815260066020908152604080832093909416825291909152205460ff1690565b3480156104e057600080fd5b506103c0600b5481565b3480156104f657600080fd5b50610260610505366004612eec565b61122b565b60006105158261130d565b92915050565b60606001805461052a90613333565b80601f016020809104026020016040519081016040528092919081815260200182805461055690613333565b80156105a35780601f10610578576101008083540402835291602001916105a3565b820191906000526020600020905b81548152906001019060200180831161058657829003601f168201915b5050505050905090565b6000818152600360205260408120546001600160a01b031661062b5760405162461bcd60e51b815260206004820152602c60248201527f4552433732313a20617070726f76656420717565727920666f72206e6f6e657860448201526b34b9ba32b73a103a37b5b2b760a11b60648201526084015b60405180910390fd5b506000908152600560205260409020546001600160a01b031690565b600061065282610eb3565b9050806001600160a01b0316836001600160a01b031614156106c05760405162461bcd60e51b815260206004820152602160248201527f4552433732313a20617070726f76616c20746f2063757272656e74206f776e656044820152603960f91b6064820152608401610622565b336001600160a01b03821614806106fa57506001600160a01b038116600090815260066020908152604080832033845290915290205460ff165b61076c5760405162461bcd60e51b815260206004820152603860248201527f4552433732313a20617070726f76652063616c6c6572206973206e6f74206f7760448201527f6e6572206e6f7220617070726f76656420666f7220616c6c00000000000000006064820152608401610622565b610776838361135d565b505050565b6000546001600160a01b031633146107d55760405162461bcd60e51b815260206004820181905260248201527f4f776e61626c653a2063616c6c6572206973206e6f7420746865206f776e65726044820152606401610622565b600b80549082905560408051828152602081018490527f557a0c98495586b2b6d09f82bc64170c4363778270385dbf35b151ee05980a1b910160405180910390a15050565b61082433826113cb565b6108965760405162461bcd60e51b815260206004820152603160248201527f4552433732313a207472616e736665722063616c6c6572206973206e6f74206f60448201527f776e6572206e6f7220617070726f7665640000000000000000000000000000006064820152608401610622565b6107768383836114be565b6000546001600160a01b031633146108fb5760405162461bcd60e51b815260206004820181905260248201527f4f776e61626c653a2063616c6c6572206973206e6f7420746865206f776e65726044820152606401610622565b604051339081904780156108fc02916000818181858888f19350505050158015610929573d6000803e3d6000fd5b5050565b6000546001600160a01b031633146109875760405162461bcd60e51b815260206004820181905260248201527f4f776e61626c653a2063616c6c6572206973206e6f7420746865206f776e65726044820152606401610622565b600054600160a01b900460ff166109e05760405162461bcd60e51b815260206004820152601460248201527f5061757361626c653a206e6f74207061757365640000000000000000000000006044820152606401610622565b6109e861167d565b565b61077683838360405180602001604052806000815250611193565b6000610a0f612c32565b60408051808201825287518152602080890151818301529083528151608081018352875151818401908152885183015160608301528152825180840184528883018051518252518301518184015281830152838201528151808301835286518152868201518183015283830152815160018082528184019093526000929091828101908036833701905050905060005b6001811015610b0a57848160018110610ac857634e487b7160e01b600052603260045260246000fd5b6020020151828281518110610aed57634e487b7160e01b600052603260045260246000fd5b602090810291909101015280610b028161336e565b915050610a9f565b50610b158183611723565b610b2457600192505050610b2b565b6000925050505b949350505050565b6000546001600160a01b03163314610b8d5760405162461bcd60e51b815260206004820181905260248201527f4f776e61626c653a2063616c6c6572206973206e6f7420746865206f776e65726044820152606401610622565b805161092990600a906020840190612c83565b60005a600054909150600160a01b900460ff1615610bf35760405162461bcd60e51b815260206004820152601060248201526f14185d5cd8589b194e881c185d5cd95960821b6044820152606401610622565b3360009081526009602052604090205460ff1615610c5d5760405162461bcd60e51b815260206004820152602160248201527f50757a7a6c653a20796f7520616c7265616479206861766520746865204e46546044820152602160f81b6064820152608401610622565b60408051610100818101909252610c8c9184906008908390839080828437600092019190915250611944915050565b610cfe5760405162461bcd60e51b815260206004820152602960248201527f50757a7a6c653a20696e76616c6964206669656c6420656c656d656e7428732960448201527f20696e2070726f6f6600000000000000000000000000000000000000000000006064820152608401610622565b6040805180820182528335815260208085013581830152825160808082018552868501358286019081526060808901359084015282528451808601865290870135815260a087013581840152818301528351808501855260c0870135815260e08701358184015284519283019094523380835293610d7c9392610a05565b610dc85760405162461bcd60e51b815260206004820152601560248201527f50757a7a6c653a20496e76616c69642070726f6f6600000000000000000000006044820152606401610622565b610dd133611a26565b336000818152600960205260409020805460ff191660019081179091557fb240f10dbc63a4c0da34911ca0d96ed72de66280583ee00b5c936bfa650d21a690610e1960085490565b610e23919061331c565b60405190815260200160405180910390a25060005a610e42908361331c565b610e4e90616f696132e5565b905060003390506000600b543a10610e6857600b54610e6a565b3a5b90506001600160a01b0382166108fc610e8383866132fd565b6040518115909202916000818181858888f19350505050158015610eab573d6000803e3d6000fd5b505050505050565b6000818152600360205260408120546001600160a01b0316806105155760405162461bcd60e51b815260206004820152602960248201527f4552433732313a206f776e657220717565727920666f72206e6f6e657869737460448201527f656e7420746f6b656e00000000000000000000000000000000000000000000006064820152608401610622565b600a8054610f4b90613333565b80601f0160208091040260200160405190810160405280929190818152602001828054610f7790613333565b8015610fc45780601f10610f9957610100808354040283529160200191610fc4565b820191906000526020600020905b815481529060010190602001808311610fa757829003601f168201915b505050505081565b60006001600160a01b03821661104a5760405162461bcd60e51b815260206004820152602a60248201527f4552433732313a2062616c616e636520717565727920666f7220746865207a6560448201527f726f2061646472657373000000000000000000000000000000000000000000006064820152608401610622565b506001600160a01b031660009081526004602052604090205490565b6000546001600160a01b031633146110c05760405162461bcd60e51b815260206004820181905260248201527f4f776e61626c653a2063616c6c6572206973206e6f7420746865206f776e65726044820152606401610622565b6109e86000611a9b565b6000546001600160a01b031633146111245760405162461bcd60e51b815260206004820181905260248201527f4f776e61626c653a2063616c6c6572206973206e6f7420746865206f776e65726044820152606401610622565b600054600160a01b900460ff16156111715760405162461bcd60e51b815260206004820152601060248201526f14185d5cd8589b194e881c185d5cd95960821b6044820152606401610622565b6109e8611aeb565b60606002805461052a90613333565b610929338383611b73565b61119d33836113cb565b61120f5760405162461bcd60e51b815260206004820152603160248201527f4552433732313a207472616e736665722063616c6c6572206973206e6f74206f60448201527f776e6572206e6f7220617070726f7665640000000000000000000000000000006064820152608401610622565b61121b84848484611c42565b50505050565b6060610515611cc0565b6000546001600160a01b031633146112855760405162461bcd60e51b815260206004820181905260248201527f4f776e61626c653a2063616c6c6572206973206e6f7420746865206f776e65726044820152606401610622565b6001600160a01b0381166113015760405162461bcd60e51b815260206004820152602660248201527f4f776e61626c653a206e6577206f776e657220697320746865207a65726f206160448201527f64647265737300000000000000000000000000000000000000000000000000006064820152608401610622565b61130a81611a9b565b50565b60006001600160e01b031982166380ac58cd60e01b148061133e57506001600160e01b03198216635b5e139f60e01b145b8061051557506301ffc9a760e01b6001600160e01b0319831614610515565b600081815260056020526040902080546001600160a01b0319166001600160a01b038416908117909155819061139282610eb3565b6001600160a01b03167f8c5be1e5ebec7d5bd14f71427d1e84f3dd0314c0f7b2291e5b200ac8c7c3b92560405160405180910390a45050565b6000818152600360205260408120546001600160a01b03166114445760405162461bcd60e51b815260206004820152602c60248201527f4552433732313a206f70657261746f7220717565727920666f72206e6f6e657860448201526b34b9ba32b73a103a37b5b2b760a11b6064820152608401610622565b600061144f83610eb3565b9050806001600160a01b0316846001600160a01b0316148061148a5750836001600160a01b031661147f846105ad565b6001600160a01b0316145b80610b2b57506001600160a01b0380821660009081526006602090815260408083209388168352929052205460ff16610b2b565b826001600160a01b03166114d182610eb3565b6001600160a01b03161461154d5760405162461bcd60e51b815260206004820152602560248201527f4552433732313a207472616e736665722066726f6d20696e636f72726563742060448201527f6f776e65720000000000000000000000000000000000000000000000000000006064820152608401610622565b6001600160a01b0382166115af5760405162461bcd60e51b8152602060048201526024808201527f4552433732313a207472616e7366657220746f20746865207a65726f206164646044820152637265737360e01b6064820152608401610622565b6115ba838383611ccf565b6115c560008261135d565b6001600160a01b03831660009081526004602052604081208054600192906115ee90849061331c565b90915550506001600160a01b038216600090815260046020526040812080546001929061161c9084906132e5565b909155505060008181526003602052604080822080546001600160a01b0319166001600160a01b0386811691821790925591518493918716917fddf252ad1be2c89b69c2b068fc378daa952ba7f163c4a11628f55a4df523b3ef91a4505050565b600054600160a01b900460ff166116d65760405162461bcd60e51b815260206004820152601460248201527f5061757361626c653a206e6f74207061757365640000000000000000000000006044820152606401610622565b6000805460ff60a01b191690557f5db9ee0a495bf2e6ff9c91a7834c1ba4fdd244a5e8aa4e537bd38aeae4b073aa335b6040516001600160a01b03909116815260200160405180910390a1565b60006000805160206133ec8339815191528161173d611d26565b90508060800151518551600161175391906132e5565b146117a05760405162461bcd60e51b815260206004820152601260248201527f76657269666965722d6261642d696e70757400000000000000000000000000006044820152606401610622565b604080518082019091526000808252602082018190525b86518110156118bb57838782815181106117e157634e487b7160e01b600052603260045260246000fd5b6020026020010151106118365760405162461bcd60e51b815260206004820152601f60248201527f76657269666965722d6774652d736e61726b2d7363616c61722d6669656c64006044820152606401610622565b6118a7826118a2856080015184600161184f91906132e5565b8151811061186d57634e487b7160e01b600052603260045260246000fd5b60200260200101518a858151811061189557634e487b7160e01b600052603260045260246000fd5b60200260200101516120db565b612182565b9150806118b38161336e565b9150506117b7565b506118f28183608001516000815181106118e557634e487b7160e01b600052603260045260246000fd5b6020026020010151612182565b90506119286119048660000151612225565b8660200151846000015185602001518587604001518b6040015189606001516122c4565b6119385760019350505050610515565b50600095945050505050565b80516000906000805160206133ec833981519152118015611976575060208201516000805160206133ec833981519152115b8015611993575060408201516000805160206133ec833981519152115b80156119b0575060608201516000805160206133ec833981519152115b80156119cd575060808201516000805160206133ec833981519152115b80156119ea575060a08201516000805160206133ec833981519152115b8015611a07575060c08201516000805160206133ec833981519152115b801561051557505060e001516000805160206133ec8339815191521190565b6000611a3160085490565b9050600c8110611a835760405162461bcd60e51b815260206004820152601160248201527f50757a7a6c653a20546f6f206c617465210000000000000000000000000000006044820152606401610622565b611a91600880546001019055565b61092982826124bf565b600080546001600160a01b038381166001600160a01b0319831681178455604051919092169283917f8be0079c531659141344cd1fd0a4f28419497f9722a3daafe3b4186f6b6457e09190a35050565b600054600160a01b900460ff1615611b385760405162461bcd60e51b815260206004820152601060248201526f14185d5cd8589b194e881c185d5cd95960821b6044820152606401610622565b6000805460ff60a01b1916600160a01b1790557f62e78cea01bee320cd4e420270b5ea74000d11b0c9f74754ebdbfc544b05a2586117063390565b816001600160a01b0316836001600160a01b03161415611bd55760405162461bcd60e51b815260206004820152601960248201527f4552433732313a20617070726f766520746f2063616c6c6572000000000000006044820152606401610622565b6001600160a01b03838116600081815260066020908152604080832094871680845294825291829020805460ff191686151590811790915591519182527f17307eab39ab6107e8899845ad3d59bd9653f200f220920489ca2b5937696c31910160405180910390a3505050565b611c4d8484846114be565b611c59848484846124d9565b61121b5760405162461bcd60e51b815260206004820152603260248201527f4552433732313a207472616e7366657220746f206e6f6e20455243373231526560448201527131b2b4bb32b91034b6b83632b6b2b73a32b960711b6064820152608401610622565b6060600a805461052a90613333565b6001600160a01b038316156107765760405162461bcd60e51b815260206004820152601960248201527f546f6b656e206973206e6f74207472616e7366657261626c65000000000000006044820152606401610622565b611d2e612d07565b6040805180820182527f2d4d9aa7e302d9df41749d5507949d05dbea33fbb16c643b22f599a2be6df2e281527f14bedd503c37ceb061d8ec60209fe345ce89830a19230301f076caff004d19266020808301919091529083528151608080820184527f0967032fcbf776d1afc985f88877f182d38480a653f2decaa9794cbc3bf3060c8285019081527f0e187847ad4c798374d0d6732bf501847dd68bc0e071241e0213bc7fc13db7ab606080850191909152908352845180860186527f304cfbd1e08a704a99f5e847d93f8c3caafddec46b7a0d379da69a4d112346a781527f1739c1b1a457a8c7313123d24d2f9192f896b7c63eea05a9d57f06547ad0cec8818601528385015285840192909252835180820185527f198e9393920d483a7260bfb731fb5d25f1aa493335a9e71297e485b7aef312c28186019081527f1800deef121f1e76426a00665e5c4479674322d4f75edadd46debd5cd992f6ed828501528152845180860186527f090689d0585ff075ec9e99ad690c3395bc4b313370b38ef355acdadcd122975b81527f12c85ea5db8c6deb4aab71808dcb408fe3d1e7690c43d37b4ce6cc0166fa7daa818601528185015285850152835190810184527f1bdb443ce61ebcf93daed4215a57e1cec90ca64973023e31197a112e8cee72f68185019081527f117e26c4235f42625b3404f2973059814ff260dba7176d7aae910f493a8e1fb5828401528152835180850185527f196e247a12f580e36894f256f0c122393489b4c213b3e913250feee806ca45ff81527f2fedff4e4bbcbf9f1c56e28a060d50eef5f54e2aab897f6b465acd2ed005ae91818501528184015281850152825160028082529181019093529082015b6040805180820190915260008082526020820152815260200190600190039081611fa757505060808201908152604080518082019091527f118dae3da1177eb655a9552f549ffe7632f2fd8b2441c249ff4990cddacca0e481527f245d2c94e3da47af845ffd61dfb5fa4444fb143fc48ca2b5bc1951612ab0c51160208201529051805160009061204857634e487b7160e01b600052603260045260246000fd5b602002602001018190525060405180604001604052807f0cb2b31aee687125d71f6165066f306a58535f6b497e17af0409090a6dda913a81526020017f26b62d3a66665cfb459e9fd9e3474edae1413471ac00644f18cf5e376880648081525081608001516001815181106120cd57634e487b7160e01b600052603260045260246000fd5b602002602001018190525090565b60408051808201909152600080825260208201526120f7612d58565b835181526020808501519082015260408101839052600060608360808460076107d05a03fa905080801561212a5761212c565bfe5b508061217a5760405162461bcd60e51b815260206004820152601260248201527f70616972696e672d6d756c2d6661696c656400000000000000000000000000006044820152606401610622565b505092915050565b604080518082019091526000808252602082015261219e612d76565b8351815260208085015181830152835160408301528301516060808301919091526000908360c08460066107d05a03fa905080801561212a57508061217a5760405162461bcd60e51b815260206004820152601260248201527f70616972696e672d6164642d6661696c656400000000000000000000000000006044820152606401610622565b604080518082019091526000808252602082015281517f30644e72e131a029b85045b68181585d97816a916871ca8d3c208c16d87cfd479015801561226c57506020830151155b1561228c5750506040805180820190915260008082526020820152919050565b6040518060400160405280846000015181526020018285602001516122b19190613389565b6122bb908461331c565b90529392505050565b60408051600480825260a08201909252600091829190816020015b60408051808201909152600080825260208201528152602001906001900390816122df57505060408051600480825260a0820190925291925060009190602082015b612329612d94565b8152602001906001900390816123215790505090508a8260008151811061236057634e487b7160e01b600052603260045260246000fd5b6020026020010181905250888260018151811061238d57634e487b7160e01b600052603260045260246000fd5b602002602001018190525086826002815181106123ba57634e487b7160e01b600052603260045260246000fd5b602002602001018190525084826003815181106123e757634e487b7160e01b600052603260045260246000fd5b6020026020010181905250898160008151811061241457634e487b7160e01b600052603260045260246000fd5b6020026020010181905250878160018151811061244157634e487b7160e01b600052603260045260246000fd5b6020026020010181905250858160028151811061246e57634e487b7160e01b600052603260045260246000fd5b6020026020010181905250838160038151811061249b57634e487b7160e01b600052603260045260246000fd5b60200260200101819052506124b0828261262e565b9b9a5050505050505050505050565b610929828260405180602001604052806000815250612a66565b60006001600160a01b0384163b1561262657604051630a85bd0160e11b81526001600160a01b0385169063150b7a029061251d90339089908890889060040161324a565b602060405180830381600087803b15801561253757600080fd5b505af1925050508015612567575060408051601f3d908101601f1916820190925261256491810190613185565b60015b61260c573d808015612595576040519150601f19603f3d011682016040523d82523d6000602084013e61259a565b606091505b5080516126045760405162461bcd60e51b815260206004820152603260248201527f4552433732313a207472616e7366657220746f206e6f6e20455243373231526560448201527131b2b4bb32b91034b6b83632b6b2b73a32b960711b6064820152608401610622565b805181602001fd5b6001600160e01b031916630a85bd0160e11b149050610b2b565b506001610b2b565b600081518351146126815760405162461bcd60e51b815260206004820152601660248201527f70616972696e672d6c656e677468732d6661696c6564000000000000000000006044820152606401610622565b825160006126908260066132fd565b905060008167ffffffffffffffff8111156126bb57634e487b7160e01b600052604160045260246000fd5b6040519080825280602002602001820160405280156126e4578160200160208202803683370190505b50905060005b838110156129e35786818151811061271257634e487b7160e01b600052603260045260246000fd5b6020026020010151600001518282600661272c91906132fd565b6127379060006132e5565b8151811061275557634e487b7160e01b600052603260045260246000fd5b60200260200101818152505086818151811061278157634e487b7160e01b600052603260045260246000fd5b6020026020010151602001518282600661279b91906132fd565b6127a69060016132e5565b815181106127c457634e487b7160e01b600052603260045260246000fd5b6020026020010181815250508581815181106127f057634e487b7160e01b600052603260045260246000fd5b60209081029190910101515151826128098360066132fd565b6128149060026132e5565b8151811061283257634e487b7160e01b600052603260045260246000fd5b60200260200101818152505085818151811061285e57634e487b7160e01b600052603260045260246000fd5b602090810291909101810151510151826128798360066132fd565b6128849060036132e5565b815181106128a257634e487b7160e01b600052603260045260246000fd5b6020026020010181815250508581815181106128ce57634e487b7160e01b600052603260045260246000fd5b6020026020010151602001516000600281106128fa57634e487b7160e01b600052603260045260246000fd5b60200201518261290b8360066132fd565b6129169060046132e5565b8151811061293457634e487b7160e01b600052603260045260246000fd5b60200260200101818152505085818151811061296057634e487b7160e01b600052603260045260246000fd5b60200260200101516020015160016002811061298c57634e487b7160e01b600052603260045260246000fd5b60200201518261299d8360066132fd565b6129a89060056132e5565b815181106129c657634e487b7160e01b600052603260045260246000fd5b6020908102919091010152806129db8161336e565b9150506126ea565b506129ec612db4565b6000602082602086026020860160086107d05a03fa905080801561212a575080612a585760405162461bcd60e51b815260206004820152601560248201527f70616972696e672d6f70636f64652d6661696c656400000000000000000000006044820152606401610622565b505115159695505050505050565b612a708383612ae4565b612a7d60008484846124d9565b6107765760405162461bcd60e51b815260206004820152603260248201527f4552433732313a207472616e7366657220746f206e6f6e20455243373231526560448201527131b2b4bb32b91034b6b83632b6b2b73a32b960711b6064820152608401610622565b6001600160a01b038216612b3a5760405162461bcd60e51b815260206004820181905260248201527f4552433732313a206d696e7420746f20746865207a65726f20616464726573736044820152606401610622565b6000818152600360205260409020546001600160a01b031615612b9f5760405162461bcd60e51b815260206004820152601c60248201527f4552433732313a20746f6b656e20616c7265616479206d696e746564000000006044820152606401610622565b612bab60008383611ccf565b6001600160a01b0382166000908152600460205260408120805460019290612bd49084906132e5565b909155505060008181526003602052604080822080546001600160a01b0319166001600160a01b03861690811790915590518392907fddf252ad1be2c89b69c2b068fc378daa952ba7f163c4a11628f55a4df523b3ef908290a45050565b6040805160a081019091526000606082018181526080830191909152815260208101612c5c612d94565b8152602001612c7e604051806040016040528060008152602001600081525090565b905290565b828054612c8f90613333565b90600052602060002090601f016020900481019282612cb15760008555612cf7565b82601f10612cca57805160ff1916838001178555612cf7565b82800160010185558215612cf7579182015b82811115612cf7578251825591602001919060010190612cdc565b50612d03929150612dd2565b5090565b6040805160e08101909152600060a0820181815260c0830191909152815260208101612d31612d94565b8152602001612d3e612d94565b8152602001612d4b612d94565b8152602001606081525090565b60405180606001604052806003906020820280368337509192915050565b60405180608001604052806004906020820280368337509192915050565b6040518060400160405280612da7612de7565b8152602001612c7e612de7565b60405180602001604052806001906020820280368337509192915050565b5b80821115612d035760008155600101612dd3565b60405180604001604052806002906020820280368337509192915050565b600067ffffffffffffffff80841115612e2057612e206133bf565b604051601f8501601f19908116603f01168101908282118183101715612e4857612e486133bf565b81604052809350858152868686011115612e6157600080fd5b858560208301376000602087830101525050509392505050565b80356001600160a01b0381168114612e9257600080fd5b919050565b600082601f830112612ea7578081fd5b612eaf613299565b808385604086011115612ec0578384fd5b835b6002811015612ee1578135845260209384019390910190600101612ec2565b509095945050505050565b600060208284031215612efd578081fd5b612f0682612e7b565b9392505050565b60008060408385031215612f1f578081fd5b612f2883612e7b565b9150612f3660208401612e7b565b90509250929050565b600080600060608486031215612f53578081fd5b612f5c84612e7b565b9250612f6a60208501612e7b565b9150604084013590509250925092565b60008060008060808587031215612f8f578081fd5b612f9885612e7b565b9350612fa660208601612e7b565b925060408501359150606085013567ffffffffffffffff811115612fc8578182fd5b8501601f81018713612fd8578182fd5b612fe787823560208401612e05565b91505092959194509250565b60008060408385031215613005578182fd5b61300e83612e7b565b915060208301358015158114613022578182fd5b809150509250929050565b6000806040838503121561303f578182fd5b61304883612e7b565b946020939093013593505050565b60008060008061012080868803121561306d578283fd5b6130778787612e97565b9450604087605f880112613089578384fd5b613091613299565b8082890160c08a018b8111156130a5578788fd5b875b60028110156130ce576130ba8d84612e97565b8552602090940193918501916001016130a7565b508298506130dc8c82612e97565b975050505050508661011f8701126130f2578182fd5b6130fa6132c2565b80610100880189848a01111561310e578485fd5b8493505b600184101561313257803583526001939093019260209283019201613112565b509598949750929550505050565b6000610100808385031215613153578182fd5b838184011115613161578182fd5b509092915050565b60006020828403121561317a578081fd5b8135612f06816133d5565b600060208284031215613196578081fd5b8151612f06816133d5565b6000602082840312156131b2578081fd5b813567ffffffffffffffff8111156131c8578182fd5b8201601f810184136131d8578182fd5b610b2b84823560208401612e05565b6000602082840312156131f8578081fd5b5035919050565b60008151808452815b8181101561322457602081850181015186830182015201613208565b818111156132355782602083870101525b50601f01601f19169290920160200192915050565b60006001600160a01b0380871683528086166020840152508360408301526080606083015261327c60808301846131ff565b9695505050505050565b602081526000612f0660208301846131ff565b6040805190810167ffffffffffffffff811182821017156132bc576132bc6133bf565b60405290565b6040516020810167ffffffffffffffff811182821017156132bc576132bc6133bf565b600082198211156132f8576132f86133a9565b500190565b6000816000190483118215151615613317576133176133a9565b500290565b60008282101561332e5761332e6133a9565b500390565b600181811c9082168061334757607f821691505b6020821081141561336857634e487b7160e01b600052602260045260246000fd5b50919050565b6000600019821415613382576133826133a9565b5060010190565b6000826133a457634e487b7160e01b81526012600452602481fd5b500690565b634e487b7160e01b600052601160045260246000fd5b634e487b7160e01b600052604160045260246000fd5b6001600160e01b03198116811461130a57600080fdfe30644e72e131a029b85045b68181585d2833e84879b9709143e1f593f0000001a164736f6c6343000804000a",
  "linkReferences": {},
  "deployedLinkReferences": {}
}